:020000004F2A85
:06000600000000000800EC
:10000C000F3083120313FC004730FD00FD0B0C284E
:0A001C00FC0B0C2800000000080097
:0E002600213083120313FD00FD0B1728080084
:1000340083120313D81B2028881221288816581BE2
:100044002528081226280816D81A2A2888112B28A9
:100054008815581A2F280811302808153018342804
:10006400081435280810881403208810D8193C284F
:1000740088123D2888165819412808124228081663
:10008400D818462888114728881558184B2808116D
:100094004C280815301850280814512808108814C2
:1000A40003208810301C58280620592813200800E3
:1000B40083120313F801F9011030FC00710DF80DDF
:1000C400F90D7408F8027508031C750FF90203187A
:1000D40072287408F80775080318750FF9070310D8
:0A00E400F00DF10DFC0B6028080080
:1000EE0083120313D60105305602031885285608CD
:1000FE005507840020308000D60A7A285608550706
:10010E0084008001D60356085507D7000A30F40044
:10011E00F5015308F0005408F1005A207808F00059
:10012E007908F1003030F00757088400700880001D
:10013E000A30F400F5015308F0005408F1005A207B
:10014E007008D3007108D40000307106031DB12869
:10015E0000307006031DB428B628D6038A2808007E
:10016E008312031330105308D8001A2030140800DD
:10017E00FF3083120313B100FF30B200FF30B30023
:10018E00FF309F01C0309F042009F00070088316D5
:0C019E009F051F179F1783121F140800F5
:1001AA000E3083120313FD00FD0BD928000008004E
:1001BA008316031388100810081188110812881270
:1001CA008312881008108812081288110811062054
:1001DA000620062088150815881403208810062092
:1001EA00881403208810062088140320881006200B
:1001FA000811881403208810062088140320881008
:10020A008811881688140320881006208812081579
:10021A0088140320881008118814032088100620E7
:10022A0088140320881008158814032088100620D3
:10023A0008118814032088108816081688150815CE
:0C024A00881403208810062030140800DF
:100256003D29803083120313CA005029C030CA00DA
:1002660050299430CA005029D430CA005029803011
:10027600CA005029831203134A08013A03192C298C
:100286004A08023A031931294A08033A031934295C
:100296004A08043A031937293A294B03F0004A0859
:1002A600F0077008CA007008D8001A203010CD0177
:1002B6004D084C0784000008031969294D084C07AE
:1002C60084000008D300B720CD0A5B29301408004B
:0E02D6008312031335088A00340882000800E2
:1002E40083120313CF01D0014A08D1004B08D20076
:1002F40080304B06F00080307002031D83290030EB
:100304004A02031891290130CF000030D0004A0876
:10031400003CD1004B08031C013ED201D20251081B
:10032400D3005208D4004C08D50077200630CD0005
:100334000030CE004E08003C031DA2294D08003CAD
:100344000318BD294D084C07F20001304D02F0009E
:100354000030031C013E4E02F10070084C0784007B
:100364000008F00072088400700880000130CD029B
:10037400031CCE039C294C088400203080004F08C5
:1003840050040319DB29CD01CE014D084C0784002C
:100394000008203A031DD229CD0A0319CE0AC72921
:1003A4000130CD02031CCE034D084C0784002D30D0
:0403B40080000800BD
:1003B800013083120313D8001A200130CA0001301B
:1003C800CB002130CC002B213808CA003908CB00DB
:1003D8003A30CC0072210230CA000130CB003A30EA
:0603E800CC002B210800EF
:1003EE00831203139F01C0309F042009F000700890
:1003FE0083169F051F179F1783123808F000F00D04
:10040E007010F00D7010F00D701070089F041F1416
:10041E00D5201F151F1D152A0000112A1F101E089A
:10042E00F100F00183161E08F0040030F1040800FC
:10043E00BF20FF308316850086018801DD200C3039
:10044E00D8001A200130D8001A2086100611080094
:10045E006B218A110A128000840AB40A0319B50AA4
:08046E00F003031D2F2A080012
:1004760083120313861406151530FB004B30FC005F
:10048600BE30FD00FD0B452AFC0B452AFB0B452A19
:080496000000861006110800A9
:10049E008E221F22B801F72170088312B600710850
:1004AE00B7007008B8007108B900DC213708023CAB
:1004BE00031D632A3608583C0318672A3B22692A13
:1004CE00861006110630FB001330FC00AD30FD0027
:1004DE00FD0B6F2AFC0B6F2AFB0B6F2A000000002E
:0404EE00512A782AED
:10051C0020308400103083120313F0007E30B400BE
:08052C000230B5002F22080087
:0204FC000F34BB
:1004FE0041346C3463346F3468346F346C3420346C
:0E050E004C346534763465346C343A34003441
:02400E007A3BFB
:00000001FF
